{
  "contractName": "Counter",
  "abi": [
    {
      "inputs": [],
      "stateMutability": "nonpayable",
      "type": "constructor"
    },
    {
      "inputs": [],
      "name": "counter",
      "outputs": [
        {
          "internalType": "uint256",
          "name": "",
          "type": "uint256"
        }
      ],
      "stateMutability": "view",
      "type": "function",
      "constant": true
    },
    {
      "inputs": [],
      "name": "incr",
      "outputs": [],
      "stateMutability": "nonpayable",
      "type": "function"
    },
    {
      "inputs": [
        {
          "internalType": "uint256",
          "name": "x",
          "type": "uint256"
        }
      ],
      "name": "addX",
      "outputs": [],
      "stateMutability": "nonpayable",
      "type": "function"
    },
    {
      "inputs": [],
      "name": "read",
      "outputs": [
        {
          "internalType": "uint256",
          "name": "",
          "type": "uint256"
        }
      ],
      "stateMutability": "view",
      "type": "function",
      "constant": true
    }
  ],
  "bytecode": "0x608060405234801561001057600080fd5b506000808190555061023d806100276000396000f3fe608060405234801561001057600080fd5b506004361061004c5760003560e01c8063119fbbd41461005157806336d3dc4b1461005b57806357de26a41461007757806361bc221a14610095575b600080fd5b6100596100b3565b005b6100756004803603810190610070919061012b565b6100ca565b005b61007f6100e1565b60405161008c9190610167565b60405180910390f35b61009d6100ea565b6040516100aa9190610167565b60405180910390f35b60016000546100c291906101b1565b600081905550565b806000546100d891906101b1565b60008190555050565b60008054905090565b60005481565b600080fd5b6000819050919050565b610108816100f5565b811461011357600080fd5b50565b600081359050610125816100ff565b92915050565b600060208284031215610141576101406100f0565b5b600061014f84828501610116565b91505092915050565b610161816100f5565b82525050565b600060208201905061017c6000830184610158565b92915050565b7f4e487b7100000000000000000000000000000000000000000000000000000000600052601160045260246000fd5b60006101bc826100f5565b91506101c7836100f5565b9250827fffffffffffffffffffffffffffffffffffffffffffffffffffffffffffffffff038211156101fc576101fb610182565b5b82820190509291505056fea26469706673582212201f0f1ec75c4108360de19b44fa43330a7454592f3ddcdc27e39def83d5a23cd864736f6c63430008090033",
  "immutableReferences": {},
  "source": "//  SPDX-License-Identifier: MIT\npragma solidity ^0.8.9;\n\ncontract Counter{\n    uint public counter;\n\n    constructor(){\n        counter = 0;\n    }\n    function incr() public{\n        counter = counter+1;\n    }\n\n    function addX(uint x) public{\n        counter = counter+x;\n    }\n\n    function read() public view returns(uint){\n        return counter;\n    }\n}",
  "sourcePath": "/Users/sum/github/denglian_solidity/w1/truffle_folder/contracts/Counter.sol",
  "compiler": {
    "name": "solc",
    "version": "0.8.9+commit.e5eed63a.Emscripten.clang"
  },
  "schemaVersion": "3.4.5",
  "updatedAt": "2022-02-25T13:03:16.432Z",
  "networkType": "ethereum",
  "devdoc": {
    "kind": "dev",
    "methods": {},
    "version": 1
  },
  "userdoc": {
    "kind": "user",
    "methods": {},
    "version": 1
  }
}